{
  "contractName": "CrowFundingV7",
  "abi": [
    {
      "anonymous": false,
      "inputs": [
        {
          "indexed": false,
          "internalType": "string",
          "name": "id",
          "type": "string"
        },
        {
          "indexed": false,
          "internalType": "uint256",
          "name": "amount",
          "type": "uint256"
        },
        {
          "indexed": false,
          "internalType": "address",
          "name": "contributor",
          "type": "address"
        }
      ],
      "name": "ProjectContributed",
      "type": "event"
    },
    {
      "anonymous": false,
      "inputs": [
        {
          "indexed": false,
          "internalType": "string",
          "name": "id",
          "type": "string"
        },
        {
          "indexed": false,
          "internalType": "string",
          "name": "name",
          "type": "string"
        },
        {
          "indexed": false,
          "internalType": "string",
          "name": "description",
          "type": "string"
        },
        {
          "indexed": false,
          "internalType": "uint256",
          "name": "goal",
          "type": "uint256"
        },
        {
          "indexed": false,
          "internalType": "address",
          "name": "owner",
          "type": "address"
        }
      ],
      "name": "ProjectCreated",
      "type": "event"
    },
    {
      "anonymous": false,
      "inputs": [
        {
          "indexed": false,
          "internalType": "string",
          "name": "id",
          "type": "string"
        },
        {
          "indexed": false,
          "internalType": "uint256",
          "name": "amount",
          "type": "uint256"
        },
        {
          "indexed": false,
          "internalType": "address",
          "name": "owner",
          "type": "address"
        }
      ],
      "name": "ProjectPaidOut",
      "type": "event"
    },
    {
      "inputs": [
        {
          "internalType": "string",
          "name": "",
          "type": "string"
        },
        {
          "internalType": "uint256",
          "name": "",
          "type": "uint256"
        }
      ],
      "name": "contributions",
      "outputs": [
        {
          "internalType": "uint256",
          "name": "amount",
          "type": "uint256"
        },
        {
          "internalType": "address payable",
          "name": "contributor",
          "type": "address"
        }
      ],
      "stateMutability": "view",
      "type": "function"
    },
    {
      "inputs": [
        {
          "internalType": "uint256",
          "name": "",
          "type": "uint256"
        }
      ],
      "name": "projects",
      "outputs": [
        {
          "internalType": "string",
          "name": "id",
          "type": "string"
        },
        {
          "internalType": "string",
          "name": "name",
          "type": "string"
        },
        {
          "internalType": "string",
          "name": "description",
          "type": "string"
        },
        {
          "internalType": "uint256",
          "name": "goal",
          "type": "uint256"
        },
        {
          "internalType": "uint256",
          "name": "amount",
          "type": "uint256"
        },
        {
          "internalType": "address payable",
          "name": "owner",
          "type": "address"
        },
        {
          "internalType": "enum CrowFundingV7.State",
          "name": "state",
          "type": "uint8"
        }
      ],
      "stateMutability": "view",
      "type": "function"
    },
    {
      "inputs": [
        {
          "internalType": "string",
          "name": "id",
          "type": "string"
        },
        {
          "internalType": "string",
          "name": "name",
          "type": "string"
        },
        {
          "internalType": "string",
          "name": "description",
          "type": "string"
        },
        {
          "internalType": "uint256",
          "name": "goal",
          "type": "uint256"
        }
      ],
      "name": "createProject",
      "outputs": [],
      "stateMutability": "nonpayable",
      "type": "function"
    },
    {
      "inputs": [
        {
          "internalType": "uint256",
          "name": "index",
          "type": "uint256"
        }
      ],
      "name": "fundProject",
      "outputs": [],
      "stateMutability": "payable",
      "type": "function"
    },
    {
      "inputs": [
        {
          "internalType": "uint256",
          "name": "index",
          "type": "uint256"
        },
        {
          "internalType": "enum CrowFundingV7.State",
          "name": "newState",
          "type": "uint8"
        }
      ],
      "name": "changeProjectState",
      "outputs": [],
      "stateMutability": "nonpayable",
      "type": "function"
    }
  ],
  "bytecode": "0x608060405234801561001057600080fd5b506120ba806100206000396000f3fe60806040526004361061004a5760003560e01c8063107046bd1461004f57806317e925d7146100925780631ca73896146100bb5780636c563abe146100e45780637f3fcdd914610100575b600080fd5b34801561005b57600080fd5b506100766004803603810190610071919061161f565b61013e565b604051610089979695949392919061192e565b60405180910390f35b34801561009e57600080fd5b506100b960048036038101906100b4919061164c565b610355565b005b3480156100c757600080fd5b506100e260048036038101906100dd91906114fa565b610919565b005b6100fe60048036038101906100f9919061161f565b610be8565b005b34801561010c57600080fd5b50610127600480360381019061012291906115c3565b6112f0565b604051610135929190611b4e565b60405180910390f35b6000818154811061014e57600080fd5b906000526020600020906006020160009150905080600001805461017190611d35565b80601f016020809104026020016040519081016040528092919081815260200182805461019d90611d35565b80156101ea5780601f106101bf576101008083540402835291602001916101ea565b820191906000526020600020905b8154815290600101906020018083116101cd57829003601f168201915b5050505050908060010180546101ff90611d35565b80601f016020809104026020016040519081016040528092919081815260200182805461022b90611d35565b80156102785780601f1061024d57610100808354040283529160200191610278565b820191906000526020600020905b81548152906001019060200180831161025b57829003601f168201915b50505050509080600201805461028d90611d35565b80601f01602080910402602001604051908101604052809291908181526020018280546102b990611d35565b80156103065780601f106102db57610100808354040283529160200191610306565b820191906000526020600020905b8154815290600101906020018083116102e957829003601f168201915b5050505050908060030154908060040154908060050160009054906101000a900473ffffffffffffffffffffffffffffffffffffffff16908060050160149054906101000a900460ff16905087565b816000818154811061036a57610369611e25565b5b906000526020600020906006020160050160009054906101000a900473ffffffffffffffffffffffffffffffffffffffff1673ffffffffffffffffffffffffffffffffffffffff163373ffffffffffffffffffffffffffffffffffffffff1614610409576040517f08c379a000000000000000000000000000000000000000000000000000000000815260040161040090611a2e565b60405180910390fd5b600080848154811061041e5761041d611e25565b5b90600052602060002090600602016040518060e001604052908160008201805461044790611d35565b80601f016020809104026020016040519081016040528092919081815260200182805461047390611d35565b80156104c05780601f10610495576101008083540402835291602001916104c0565b820191906000526020600020905b8154815290600101906020018083116104a357829003601f168201915b505050505081526020016001820180546104d990611d35565b80601f016020809104026020016040519081016040528092919081815260200182805461050590611d35565b80156105525780601f1061052757610100808354040283529160200191610552565b820191906000526020600020905b81548152906001019060200180831161053557829003601f168201915b5050505050815260200160028201805461056b90611d35565b80601f016020809104026020016040519081016040528092919081815260200182805461059790611d35565b80156105e45780601f106105b9576101008083540402835291602001916105e4565b820191906000526020600020905b8154815290600101906020018083116105c757829003601f168201915b5050505050815260200160038201548152602001600482015481526020016005820160009054906101000a900473ffffffffffffffffffffffffffffffffffffffff1673ffffffffffffffffffffffffffffffffffffffff1673ffffffffffffffffffffffffffffffffffffffff1681526020016005820160149054906101000a900460ff16600381111561067c5761067b611dc7565b5b600381111561068e5761068d611dc7565b5b8152505090508260038111156106a7576106a6611dc7565b5b8160c0015160038111156106be576106bd611dc7565b5b14156106ff576040517f08c379a00000000000000000000000000000000000000000000000000000000081526004016106f690611b0e565b60405180910390fd5b6000600381111561071357610712611dc7565b5b83600381111561072657610725611dc7565b5b148061075557506003808111156107405761073f611dc7565b5b83600381111561075357610752611dc7565b5b145b610794576040517f08c379a000000000000000000000000000000000000000000000000000000000815260040161078b90611aee565b60405180910390fd5b828160c0019060038111156107ac576107ab611dc7565b5b908160038111156107c0576107bf611dc7565b5b8152505080600085815481106107d9576107d8611e25565b5b90600052602060002090600602016000820151816000019080519060200190610803929190611367565b506020820151816001019080519060200190610820929190611367565b50604082015181600201908051906020019061083d929190611367565b50606082015181600301556080820151816004015560a08201518160050160006101000a81548173ffffffffffffffffffffffffffffffffffffffff021916908373ffffffffffffffffffffffffffffffffffffffff16021790555060c08201518160050160146101000a81548160ff021916908360038111156108c4576108c3611dc7565b5b02179055509050507f337555c58507cc7883927ffa50c1e3e0d2cdca28e129cce70080ef947bf915b9816000015182608001518360a0015160405161090b939291906119f0565b60405180910390a150505050565b6000811161095c576040517f08c379a000000000000000000000000000000000000000000000000000000000815260040161095390611b2e565b60405180910390fd5b60006040518060e0016040528089898080601f016020809104026020016040519081016040528093929190818152602001838380828437600081840152601f19601f82011690508083019250505050505050815260200187878080601f016020809104026020016040519081016040528093929190818152602001838380828437600081840152601f19601f82011690508083019250505050505050815260200185858080601f016020809104026020016040519081016040528093929190818152602001838380828437600081840152601f19601f820116905080830192505050505050508152602001838152602001600081526020013373ffffffffffffffffffffffffffffffffffffffff16815260200160006003811115610a8457610a83611dc7565b5b815250905060008190806001815401808255809150506001900390600052602060002090600602016000909190919091506000820151816000019080519060200190610ad1929190611367565b506020820151816001019080519060200190610aee929190611367565b506040820151816002019080519060200190610b0b929190611367565b50606082015181600301556080820151816004015560a08201518160050160006101000a81548173ffffffffffffffffffffffffffffffffffffffff021916908373ffffffffffffffffffffffffffffffffffffffff16021790555060c08201518160050160146101000a81548160ff02191690836003811115610b9257610b91611dc7565b5b021790555050507fe30d029804b57d17cb25c414eed96b95baaca9a423765d115ab7a9d95dd0fb688888888888888833604051610bd69897969594939291906118c0565b60405180910390a15050505050505050565b8060008181548110610bfd57610bfc611e25565b5b906000526020600020906006020160050160009054906101000a900473ffffffffffffffffffffffffffffffffffffffff1673ffffffffffffffffffffffffffffffffffffffff163373ffffffffffffffffffffffffffffffffffffffff161415610c9d576040517f08c379a0000000000000000000000000000000000000000000000000000000008152600401610c9490611ace565b60405180910390fd5b6000808381548110610cb257610cb1611e25565b5b90600052602060002090600602016040518060e0016040529081600082018054610cdb90611d35565b80601f0160208091040260200160405190810160405280929190818152602001828054610d0790611d35565b8015610d545780601f10610d2957610100808354040283529160200191610d54565b820191906000526020600020905b815481529060010190602001808311610d3757829003601f168201915b50505050508152602001600182018054610d6d90611d35565b80601f0160208091040260200160405190810160405280929190818152602001828054610d9990611d35565b8015610de65780601f10610dbb57610100808354040283529160200191610de6565b820191906000526020600020905b815481529060010190602001808311610dc957829003601f168201915b50505050508152602001600282018054610dff90611d35565b80601f0160208091040260200160405190810160405280929190818152602001828054610e2b90611d35565b8015610e785780601f10610e4d57610100808354040283529160200191610e78565b820191906000526020600020905b815481529060010190602001808311610e5b57829003601f168201915b5050505050815260200160038201548152602001600482015481526020016005820160009054906101000a900473ffffffffffffffffffffffffffffffffffffffff1673ffffffffffffffffffffffffffffffffffffffff1673ffffffffffffffffffffffffffffffffffffffff1681526020016005820160149054906101000a900460ff166003811115610f1057610f0f611dc7565b5b6003811115610f2257610f21611dc7565b5b81525050905060006003811115610f3c57610f3b611dc7565b5b8160c001516003811115610f5357610f52611dc7565b5b14610f93576040517f08c379a0000000000000000000000000000000000000000000000000000000008152600401610f8a90611aae565b60405180910390fd5b60003411610fd6576040517f08c379a0000000000000000000000000000000000000000000000000000000008152600401610fcd90611a6e565b60405180910390fd5b8060600151348260800151610feb9190611bf4565b111561102c576040517f08c379a000000000000000000000000000000000000000000000000000000000815260040161102390611a4e565b60405180910390fd5b806060015181608001511115611077576040517f08c379a000000000000000000000000000000000000000000000000000000000815260040161106e90611a8e565b60405180910390fd5b8060a0015173ffffffffffffffffffffffffffffffffffffffff166108fc349081150290604051600060405180830381858888f193505050501580156110c1573d6000803e3d6000fd5b5034816080018181516110d49190611bf4565b9150818152505080600084815481106110f0576110ef611e25565b5b9060005260206000209060060201600082015181600001908051906020019061111a929190611367565b506020820151816001019080519060200190611137929190611367565b506040820151816002019080519060200190611154929190611367565b50606082015181600301556080820151816004015560a08201518160050160006101000a81548173ffffffffffffffffffffffffffffffffffffffff021916908373ffffffffffffffffffffffffffffffffffffffff16021790555060c08201518160050160146101000a81548160ff021916908360038111156111db576111da611dc7565b5b0217905550905050600181600001516040516111f791906118a9565b908152602001604051809103902060405180604001604052803481526020013373ffffffffffffffffffffffffffffffffffffffff1681525090806001815401808255809150506001900390600052602060002090600202016000909190919091506000820151816000015560208201518160010160006101000a81548173ffffffffffffffffffffffffffffffffffffffff021916908373ffffffffffffffffffffffffffffffffffffffff16021790555050507f60a5e2fb279f3b388581e6e19f65db873e4b9aec9740aeccd8e18dd86e56a07f816000015134336040516112e3939291906119b2565b60405180910390a1505050565b600182805160208101820180518482526020830160208501208183528095505050505050818154811061132257600080fd5b9060005260206000209060020201600091509150508060000154908060010160009054906101000a900473ffffffffffffffffffffffffffffffffffffffff16905082565b82805461137390611d35565b90600052602060002090601f01602090048101928261139557600085556113dc565b82601f106113ae57805160ff19168380011785556113dc565b828001600101855582156113dc579182015b828111156113db5782518255916020019190600101906113c0565b5b5090506113e991906113ed565b5090565b5b808211156114065760008160009055506001016113ee565b5090565b600061141d61141884611b9c565b611b77565b90508281526020810184848401111561143957611438611e92565b5b611444848285611cf3565b509392505050565b60008135905061145b8161205d565b92915050565b60008083601f84011261147757611476611e88565b5b8235905067ffffffffffffffff81111561149457611493611e83565b5b6020830191508360018202830111156114b0576114af611e8d565b5b9250929050565b600082601f8301126114cc576114cb611e88565b5b81356114dc84826020860161140a565b91505092915050565b6000813590506114f48161206d565b92915050565b60008060008060008060006080888a03121561151957611518611e9c565b5b600088013567ffffffffffffffff81111561153757611536611e97565b5b6115438a828b01611461565b9750975050602088013567ffffffffffffffff81111561156657611565611e97565b5b6115728a828b01611461565b9550955050604088013567ffffffffffffffff81111561159557611594611e97565b5b6115a18a828b01611461565b935093505060606115b48a828b016114e5565b91505092959891949750929550565b600080604083850312156115da576115d9611e9c565b5b600083013567ffffffffffffffff8111156115f8576115f7611e97565b5b611604858286016114b7565b9250506020611615858286016114e5565b9150509250929050565b60006020828403121561163557611634611e9c565b5b6000611643848285016114e5565b91505092915050565b6000806040838503121561166357611662611e9c565b5b6000611671858286016114e5565b92505060206116828582860161144c565b9150509250929050565b61169581611cab565b82525050565b6116a481611c5c565b82525050565b6116b381611c4a565b82525050565b6116c281611cbd565b82525050565b60006116d48385611bd8565b93506116e1838584611cf3565b6116ea83611ea1565b840190509392505050565b600061170082611bcd565b61170a8185611bd8565b935061171a818560208601611d02565b61172381611ea1565b840191505092915050565b600061173982611bcd565b6117438185611be9565b9350611753818560208601611d02565b80840191505092915050565b600061176c602183611bd8565b915061177782611eb2565b604082019050919050565b600061178f601e83611bd8565b915061179a82611f01565b602082019050919050565b60006117b2601883611bd8565b91506117bd82611f2a565b602082019050919050565b60006117d5601d83611bd8565b91506117e082611f53565b602082019050919050565b60006117f8601683611bd8565b915061180382611f7c565b602082019050919050565b600061181b601f83611bd8565b915061182682611fa5565b602082019050919050565b600061183e601483611bd8565b915061184982611fce565b602082019050919050565b6000611861601783611bd8565b915061186c82611ff7565b602082019050919050565b6000611884601b83611bd8565b915061188f82612020565b602082019050919050565b6118a381611ca1565b82525050565b60006118b5828461172e565b915081905092915050565b600060a08201905081810360008301526118db818a8c6116c8565b905081810360208301526118f081888a6116c8565b905081810360408301526119058186886116c8565b9050611914606083018561189a565b61192160808301846116aa565b9998505050505050505050565b600060e0820190508181036000830152611948818a6116f5565b9050818103602083015261195c81896116f5565b9050818103604083015261197081886116f5565b905061197f606083018761189a565b61198c608083018661189a565b61199960a083018561169b565b6119a660c08301846116b9565b98975050505050505050565b600060608201905081810360008301526119cc81866116f5565b90506119db602083018561189a565b6119e860408301846116aa565b949350505050565b60006060820190508181036000830152611a0a81866116f5565b9050611a19602083018561189a565b611a26604083018461168c565b949350505050565b60006020820190508181036000830152611a478161175f565b9050919050565b60006020820190508181036000830152611a6781611782565b9050919050565b60006020820190508181036000830152611a87816117a5565b9050919050565b60006020820190508181036000830152611aa7816117c8565b9050919050565b60006020820190508181036000830152611ac7816117eb565b9050919050565b60006020820190508181036000830152611ae78161180e565b9050919050565b60006020820190508181036000830152611b0781611831565b9050919050565b60006020820190508181036000830152611b2781611854565b9050919050565b60006020820190508181036000830152611b4781611877565b9050919050565b6000604082019050611b63600083018561189a565b611b70602083018461169b565b9392505050565b6000611b81611b92565b9050611b8d8282611d67565b919050565b6000604051905090565b600067ffffffffffffffff821115611bb757611bb6611e54565b5b611bc082611ea1565b9050602081019050919050565b600081519050919050565b600082825260208201905092915050565b600081905092915050565b6000611bff82611ca1565b9150611c0a83611ca1565b9250827fffffffffffffffffffffffffffffffffffffffffffffffffffffffffffffffff03821115611c3f57611c3e611d98565b5b828201905092915050565b6000611c5582611c81565b9050919050565b6000611c6782611c81565b9050919050565b6000819050611c7c82612049565b919050565b600073ffffffffffffffffffffffffffffffffffffffff82169050919050565b6000819050919050565b6000611cb682611ccf565b9050919050565b6000611cc882611c6e565b9050919050565b6000611cda82611ce1565b9050919050565b6000611cec82611c81565b9050919050565b82818337600083830152505050565b60005b83811015611d20578082015181840152602081019050611d05565b83811115611d2f576000848401525b50505050565b60006002820490506001821680611d4d57607f821691505b60208210811415611d6157611d60611df6565b5b50919050565b611d7082611ea1565b810181811067ffffffffffffffff82111715611d8f57611d8e611e54565b5b80604052505050565b7f4e487b7100000000000000000000000000000000000000000000000000000000600052601160045260246000fd5b7f4e487b7100000000000000000000000000000000000000000000000000000000600052602160045260246000fd5b7f4e487b7100000000000000000000000000000000000000000000000000000000600052602260045260246000fd5b7f4e487b7100000000000000000000000000000000000000000000000000000000600052603260045260246000fd5b7f4e487b7100000000000000000000000000000000000000000000000000000000600052604160045260246000fd5b600080fd5b600080fd5b600080fd5b600080fd5b600080fd5b600080fd5b6000601f19601f8301169050919050565b7f4f6e6c79206f776e65722063616e2063616c6c20746869732066756e6374696f60008201527f6e00000000000000000000000000000000000000000000000000000000000000602082015250565b7f596f75206172652073656e64696e6720746f6f206d756368206d6f6e65790000600082015250565b7f596f75206d7573742073656e6420736f6d652065746865720000000000000000600082015250565b7f50726f6a65637420676f616c20686173206265656e2072656163686564000000600082015250565b7f50726f6a656374206973206e6f74206f6e676f696e6700000000000000000000600082015250565b7f4f776e65722063616e6e6f742063616c6c20746869732066756e6374696f6e00600082015250565b7f5374617465206d7573742062652030206f722031000000000000000000000000600082015250565b7f5374617465206d75737420626520646966666572656e74000000000000000000600082015250565b7f476f616c206d7573742062652067726561746572207468616e20300000000000600082015250565b6004811061205a57612059611dc7565b5b50565b6004811061206a57600080fd5b50565b61207681611ca1565b811461208157600080fd5b5056fea2646970667358221220466fc0ca9d92fe464c2a4d0587c6bd4ed3660d93018ff9af9d0eccb61f262af464736f6c63430008070033",
  "immutableReferences": {},
  "source": "// SPDX-License-Identifier: GPL-3.0\r\n\r\npragma solidity ^0.8.7;\r\n\r\ncontract CrowFundingV7 {\r\n\r\n    /* Arrays y mapping\r\n\r\n        Un contrato inteligente pude almacenar cientos o miles de datos\r\n        a lo largo de su vida til. En estos casos debemos implementar estructuras\r\n        de datos que nos permitan manipular gran cantidad de datos de manera eficiente.\r\n\r\n        En Solidity tenemos 3 tipos de estructuras de datos:\r\n\r\n        - Arrays\r\n        - Mappings\r\n        - Structs\r\n\r\n        Arrays\r\n\r\n        Los arrays son estructuras de datos que nos permiten almacenar una coleccin\r\n        de datos del mismo tipo. En Solidity los arrays son de tamao fijo y dinamico.\r\n\r\n        1. longitud fija: uint[3] steps = [1, 2, 3];\r\n        2. longitud dinamica: uint[] steps = [1, 2, 3];\r\n\r\n        Mtodos (solo funcionan para los arrays dinamicos)\r\n\r\n        - push(): aade un elemento al final del array\r\n        - pop(): elimina el ltimo elemento del array\r\n\r\n        Mappings\r\n\r\n        Si tenemos un array con miles de datos, acceder a un valor en el medio\r\n        de este puede ser costoso. Tener que recorrer todo el mismo para encontrar\r\n        un valor requiere procesamiento y, por ende, consumo de gas. Los Mappings \r\n        solucionan este problema permitiendo asignar valores a una clave nica para \r\n        acceder al dato.\r\n\r\n        La declaracin de un mapping requiere de especificar\r\n        el tipo de dato de la clave, y el tipo de dato del valor que esta guardar.\r\n\r\n        >> mapping(string => uint) public myMapping;\r\n    */\r\n\r\n    // crear la estructura de datos para los proyectos\r\n\r\n    enum State { Ongoing, Failed, Succeeded, PaidOut }\r\n\r\n    struct Project {\r\n        string id;\r\n        string name;\r\n        string description;\r\n\r\n        uint goal;\r\n        uint amount;\r\n        address payable owner;\r\n        State state; // state of the project\r\n    }\r\n\r\n    struct Contribution {\r\n        uint amount;\r\n        address payable contributor;\r\n    }\r\n\r\n    Project[] public projects;\r\n\r\n    // crear un mapping para almacenar las contribucciones.\r\n\r\n    mapping(string => Contribution[]) public contributions;\r\n\r\n    // modifiers\r\n\r\n    modifier onlyOwner(uint _index) {\r\n        require(msg.sender == projects[_index].owner, \"Only owner can call this function\");\r\n        _;\r\n    }\r\n\r\n    modifier notOwner(uint _index) {\r\n        require(msg.sender != projects[_index].owner, \"Owner cannot call this function\");\r\n        _;\r\n    }\r\n\r\n    // Events\r\n\r\n    event ProjectCreated(string id, string name, string description, uint goal, address owner);\r\n    event ProjectContributed(string id, uint amount, address contributor);\r\n    event ProjectPaidOut(string id, uint amount, address owner);\r\n\r\n    // Functions\r\n\r\n    function createProject(string calldata id, string calldata name, string calldata description, uint goal) public  {\r\n        require(goal > 0, \"Goal must be greater than 0\");\r\n        Project memory project = Project(id, name, description, goal, 0, payable(msg.sender), State.Ongoing);\r\n        projects.push(project);\r\n        emit ProjectCreated(id, name, description, goal, msg.sender);\r\n    }\r\n\r\n    function fundProject(uint256 index) notOwner(index) public payable {\r\n        Project memory project = projects[index];\r\n        require(project.state == State.Ongoing, \"Project is not ongoing\");\r\n        require(msg.value > 0, \"You must send some ether\");\r\n        require(project.amount + msg.value <= project.goal, \"You are sending too much money\");\r\n        require(project.amount <= project.goal, \"Project goal has been reached\");\r\n\r\n        project.owner.transfer(msg.value);\r\n        project.amount += msg.value;\r\n\r\n        projects[index] = project;\r\n\r\n        contributions[project.id].push(Contribution(msg.value, payable(msg.sender)));\r\n        emit ProjectContributed(project.id, msg.value, msg.sender);\r\n    }\r\n\r\n    function changeProjectState(uint index, State newState) onlyOwner(index) public {\r\n        Project memory project = projects[index];\r\n        require(project.state != newState, \"State must be different\");\r\n        require(newState == State.Ongoing || newState == State.PaidOut, \"State must be 0 or 1\");\r\n        project.state = newState;\r\n        projects[index] = project;\r\n        emit ProjectPaidOut(project.id, project.amount, project.owner);\r\n    }\r\n}\r\n",
  "sourcePath": "/home/cami-gunz/courses/projects/crowFundingV7/contracts/CrowFundingV7.sol",
  "compiler": {
    "name": "solc",
    "version": "0.8.7+commit.e28d00a7.Emscripten.clang"
  },
  "schemaVersion": "3.4.11",
  "updatedAt": "2022-12-12T04:07:23.409Z",
  "devdoc": {
    "kind": "dev",
    "methods": {},
    "version": 1
  },
  "userdoc": {
    "kind": "user",
    "methods": {},
    "version": 1
  }
}